:020000040000FA
:100000000C9467000C948F000C948F000C948F005C
:100010000C948F000C948F000C948F000C948F0024
:100020000C948F000C948F000C948F000C94160786
:100030000C948F000C948F000C948F000C948F0004
:100040000C9474060C948F000C94E4060C94BE0679
:100050000C948F000C948F000C948F000C948F00E4
:100060000C94D2070C948F0000000000240027009D
:100070002A0000000000250028002B0000000000DE
:1000800023002600290004040404040404040202DA
:100090000202020203030303030302020301020438
:1000A00008102040800102040810200102040810FA
:1000B0002040804000000009000302000004050801
:1000C000000000000000000000000000FD081124F6
:1000D0001FBECFEFD8E0DEBFCDBF12E0A0E0B1E0A1
:1000E000E4E4FBE102C005900D92A234B107D9F718
:1000F00023E0A2E4B2E001C01D92A63DB207E1F701
:1001000010E0C7E6D0E004C02197FE010E949A0DDE
:10011000C636D107C9F70E9481090C94A00D0C9432
:1001200000008F929F92AF92BF92FF920F931F9306
:10013000CF93DF93F090C7032BE02F1508F44CC04A
:100140002091C90308E512E0021B110927FD139550
:10015000000F111F000F111F2091C803C8E8D0E045
:10016000C21BD10927FDD395CC0FDD1FCC0FDD1F9E
:100170004E010D2E000CAA08BB089801012E000CA0
:10018000440B550B281939094A095B09DC010E9407
:10019000550D24EB30E040E050E00E942B0D820E24
:1001A000931EA41EB51E8C169D062CF0E801801629
:1001B00091060CF4E4012297CC0FDD1F2FB7F894C1
:1001C0008F2D90E0FC01EE0FFF1FE80FF91FEE5599
:1001D000FC4FD283C1832FBFDF91CF911F910F912D
:1001E000FF90BF90AF909F908F900895843081F0E2
:1001F00028F48230E9F08330F9F00895883071F006
:10020000893091F08530B9F4809180008F7D03C0F2
:10021000809180008F778093800008958091B00056
:100220008F778093B00008958091B0008F7DF9CFD3
:1002300084B58F7784BD089584B58F7DFBCFCF9330
:10024000DF93282F30E0F901EC54FF4F8491F9013E
:10025000E356FF4FD491F901EA57FF4FC491CC23E5
:10026000A1F081110E94F600EC2FF0E0EE0FFF1FCD
:10027000E458FF4FA591B491EC91ED2381E090E01B
:1002800009F480E0DF91CF91089580E090E0FACF0B
:100290001F93CF93DF93282F30E0F901EC54FF4FE9
:1002A0008491F901E356FF4FD491F901EA57FF4FCA
:1002B000C491CC23A9F0162F81110E94F600EC2FD7
:1002C000F0E0EE0FFF1FEE58FF4FA591B4918FB7EE
:1002D000F894EC91111108C0D095DE23DC938FBF08
:1002E000DF91CF911F910895DE2BF8CFCF93DF934D
:1002F00090E0FC01E356FF4F24918A579F4FFC0189
:1003000084918823D1F090E0880F991FFC01E8596F
:10031000FF4FA591B491FC01EE58FF4FC591D491C8
:10032000623071F49FB7F8943C91822F80958323BB
:100330008C93E8812E2B28839FBFDF91CF91089566
:100340008FB7F894EC912E2B2C938FBFF6CF1F9381
:10035000CF93DF93182FEB0161E00E947601209785
:1003600039F460E0812FDF91CF911F910C94480107
:10037000CF3FD10511F461E0F5CFE12FF0E0EC546F
:10038000FF4FE491E43031F140F4E230B1F0E3307A
:10039000E1F0C038D1057CF7E4CFE83029F1E9304D
:1003A00059F1E530B1F78091800080628093800040
:1003B000D0938B00C0938A0004C084B5806884BD4C
:1003C000C7BDDF91CF911F91089584B5806284BD30
:1003D000C8BDF7CF80918000806880938000D09363
:1003E0008900C0938800EDCF8091B0008068809331
:1003F000B000C093B300E5CF8091B00080628093DD
:10040000B000C093B400DDCF8130910539F0880F82
:10041000991F880F991F05970197F1F708953FB726
:10042000F8948091F5029091F602A091F702B091B4
:10043000F80226B5A89B05C02F3F19F00196A11D13
:10044000B11D3FBFBA2FA92F982F8827BC01CD011E
:10045000620F711D811D911D42E0660F771F881F7D
:10046000991F4A95D1F708958F929F92AF92BF92AC
:10047000CF92DF92EF92FF924B015C010E940F023C
:100480006B017C010E940F026C197D098E099F0986
:10049000683E734081059105A8F321E0821A910816
:1004A000A108B10888EEC80E83E0D81EE11CF11C3B
:1004B00081149104A104B10429F7FF90EF90DF901B
:1004C000CF90BF90AF909F908F900895089508951A
:1004D000AF92BF92CF92DF92EF92FF920F931F9352
:1004E000CF93DF936C017B018B01040F151FEB0190
:1004F0005E01AE18BF08C017D10759F06991D60147
:10050000ED91FC910190F081E02DC6010995892BB8
:1005100079F7C501DF91CF911F910F91FF90EF9077
:10052000DF90CF90BF90AF900895FC01538D448D24
:10053000252F30E0842F90E0821B930B541710F08E
:10054000CF96089501970895FC01918D828D98179B
:1005500061F0A28DAE0FBF2FB11D5D968C91928D73
:100560009F5F9F73928F90E008958FEF9FEF0895A4
:10057000FC01918D828D981731F0828DE80FF11D6D
:10058000858D90E008958FEF9FEF0895FC01918D88
:10059000228D892F90E0805C9F4F821B91098F7381
:1005A0009927089589EF92E00E94C60221E0892BE5
:1005B00009F420E0822F089580E090E0892B29F053
:1005C0000E94D20281110C9400000895FC01A48DB8
:1005D000A80FB92FB11DA35ABF4F2C91848D90E065
:1005E00001968F739927848FA689B7892C93A08948
:1005F000B1898C91837080648C93938D848D9813D2
:1006000006C00288F389E02D80818F7D8083089564
:10061000EF92FF920F931F93CF93DF93EC0181E052
:10062000888F9B8D8C8D98131AC0E889F9898081F9
:1006300085FF15C09FB7F894EE89FF896083E8892C
:10064000F98980818370806480839FBF81E090E01E
:10065000DF91CF911F910F91FF90EF900895F62EAB
:100660000B8D10E00F5F1F4F0F731127E02E8C8D45
:100670008E110CC00FB607FCFACFE889F98980818A
:1006800085FFF5CFCE010E94E602F1CFEB8DEC0F96
:10069000FD2FF11DE35AFF4FF0829FB7F8940B8FA7
:1006A000EA89FB8980818062CFCFCF93DF93EC0111
:1006B000888D8823B9F0AA89BB89E889F9898C914A
:1006C00085FD03C0808186FD0DC00FB607FCF7CF06
:1006D0008C9185FFF2CF808185FFEDCFCE010E9406
:1006E000E602E9CFDF91CF910895089585ED8093DB
:1006F000BC008091BC0084FDFCCF1092DA0208950A
:1007000020918802260F3327331F21323105ECF464
:100710002091DA02FC0190E080E0243069F082E070
:100720000895A09188022191AC0148595D4FA40F12
:10073000B52FB11D2C930196861798F380918802EE
:10074000680F6093880280E0089581E0089508951D
:10075000E091DE028091DD02E81730F4F0E0E85B22
:10076000FD4F808190E008958FEF9FEF0895909165
:10077000DE028091DD022FEF3FEF981748F4E92F5A
:10078000F0E0E85BFD4F208130E09F5F9093DE0258
:10079000C90108958091DD029091DE02891B990BB9
:1007A0000895CF92DF92EF92FF920F931F93CF9312
:1007B000DF937C01CB018A012091B102222389F0D1
:1007C000EB016B01C40ED51ECC15DD0569F06991F6
:1007D000D701ED91FC910190F081E02DC7010995C1
:1007E000F3CF642F0E948003C801DF91CF911F9146
:1007F0000F91FF90EF90DF90CF900895CF93DF930C
:100800001F92CDB7DEB769832091B1022223F9F0A0
:100810002091DB02203258F021E030E0FC013383EC
:10082000228390E080E00F90DF91CF910895809136
:10083000DC02E82FF0E0EE54FD4F998190838F5F4A
:100840008093DC028093DB0281E090E0ECCF61E0FA
:10085000CE0101960E948003F7CFCF93FC01C481A3
:1008600021E02093B102C093D2021092DC021092D8
:10087000DB028385682B86E993E00E94FE0380916A
:10088000DB028132F0F59091DA029111FCCF92E017
:100890009093DA0291E09093D9029FEF9093B00287
:1008A00022EB32E03093AF022093AE021092AD0201
:1008B0008093AC021092AB028091AB02CC0FC82B9C
:1008C000C093AB028091D802813019F51092D80202
:1008D0008091AB028093BB008091BC0083FDF8CF78
:1008E00085EC8093BC008091DA028230E1F3809144
:1008F000B0028F3F31F08091B002803211F08091D0
:10090000B0021092DC021092DB021092B102CF9181
:10091000089585EEE6CF0F931F93CF938C01C62FDA
:100920000E942D046C2F6460C8010E942D0481E098
:1009300090E00E9404026C2F6B7FC8010E942D047E
:1009400082E390E0CF911F910F910C9404020F93DA
:100950001F93CF93DF938C01D62FC42F607F642B1E
:100960000E948B0480E1D89FB00111246C2BC80138
:10097000DF91CF911F910F910C948B0441E00E9465
:10098000A70481E090E00895CF93DF93CDB7DEB761
:1009900028970FB6F894DEBF0FBECDBF88E0E8E021
:1009A000F1E0DE01119601900D928A95E1F78091B8
:1009B000D20381111AC08FEF90E0880F991F21E0B8
:1009C00030E02C0F3D1F820F931FFC016081606897
:1009D00040E08AEC93E028960FB6F894DEBF0FBE95
:1009E000CDBFDF91CF910C94A70481E0E5CF40E02B
:1009F00061E08AEC93E00E94A70480ED97E00C94FC
:100A0000040290E080E008950F931F93CF93DF934B
:100A10008B01EA01BC018AE00E94A701B8018BE0CA
:100A20000E94A701BE018CE0DF91CF911F910F9131
:100A30000C94A7012FB7F8948091F1029091F202E3
:100A4000A091F302B091F4022FBF8093EB02909338
:100A5000EC02A093ED02B093EE0288E08093D50300
:100A600060E08AEC93E00C942D04FB0101900020DF
:100A7000E9F73197AF01461B570BDC01ED91FC9173
:100A80000280F381E02D09948F929F92AF92BF92E2
:100A90000F931F93CF93DF93CDB7DEB7A1970FB618
:100AA000F894DEBF0FBECDBF19A2423008F44AE071
:100AB0008E010F5D1F4F842E912CB12CA12CA5010E
:100AC00094010E945D0DE62FB901CA01EA3004F5D8
:100AD000E05DD801EE938D01232B242B252B79F794
:100AE00090E080E0109729F0BD018AEC93E00E942D
:100AF0003505A1960FB6F894DEBF0FBECDBFDF91CE
:100B0000CF911F910F91BF90AF909F908F900895BC
:100B1000E95CDFCFCF92DF92EF92FF926B017C0115
:100B200041E06DE28AEC93E00E94A70466277727F4
:100B3000CB016C197D098E099F094AE00E9444058A
:100B40000196FF90EF90DF90CF900895BC018AEC62
:100B500093E00C943505CF93DF93BC0189EF92E0CD
:100B60000E943505EC0160E571E089EF92E00E949A
:100B700035058C0F9D1FDF91CF910895CF93DF93A3
:100B80000E94C404D0E0C0E08091E9029091EA02A2
:100B9000C817D9075CF483E591E00E94A605219669
:100BA000C430D10589F7DF91CF9108958C179D0747
:100BB000D1F487E591E00E94A605FE01EE0FFF1F2C
:100BC000EF51FD4F60817181072E000C880B990B4E
:100BD00097FF05C00E948A0589E591E0DECF4AE0D3
:100BE0000E944405F9CF8BE591E0D7CFE1EEF2E02A
:100BF0001182108213821282158214821782168249
:100C00001092EA021092E90250E040E070E060E0E9
:100C100090E080E00E9404050E94F7048FE591E0D7
:100C20000E94A6050C94BE050E94F7048CE691E094
:100C30000E94A60550E040E06FEF70E090E080E099
:100C40000E9404058AE590E00E94910068E873E143
:100C500080E090E00E94340290E080E00E949100E9
:100C60000C94F605CF92DF92EF92FF92CF93DF9331
:100C7000EC0181E08093EF026E010D2E000CEE0876
:100C8000FF080E94F70484E791E00E94A6054AE06D
:100C9000C701B6010E9444058DE791E00E94A605B8
:100CA00050E040E070E060E08FEF90E00E940405CB
:100CB00068EE73E080E090E00E943402219781E0CA
:100CC000C81AD108E108F1082097D9F61092E0027D
:100CD0001092DF021092EF02DF91CF91FF90EF9020
:100CE000DF90CF900C94F6051F920F920FB60F92E3
:100CF00011242F933F938F939F93AF93BF93809132
:100D0000F1029091F202A091F302B091F4023091BD
:100D1000F00223E0230F2D3768F126E8230F029617
:100D2000A11DB11D2093F0028093F1029093F20275
:100D3000A093F302B093F4028091F5029091F60231
:100D4000A091F702B091F8020196A11DB11D809308
:100D5000F5029093F602A093F702B093F802BF91C8
:100D6000AF919F918F913F912F910F900FBE0F9058
:100D70001F9018950196A11DB11DD4CF1F920F92FF
:100D80000FB60F9211242F933F934F935F936F935E
:100D90007F938F939F93AF93BF93EF93FF9389EFCD
:100DA00092E00E94E602FF91EF91BF91AF919F9177
:100DB0008F917F916F915F914F913F912F910F9004
:100DC0000FBE0F901F9018951F920F920FB60F92A3
:100DD00011242F938F939F93EF93FF93E091090337
:100DE000F0910A038081E0910F03F091100382FDDE
:100DF0001BC09081809112038F5F8F73209113032A
:100E0000821741F0E0911203F0E0E750FD4F958F1B
:100E100080931203FF91EF919F918F912F910F90EB
:100E20000FBE0F901F9018958081F4CF1F920F92E4
:100E30000FB60F9211242F933F934F935F936F93AD
:100E40007F938F939F93AF93BF93CF93DF93EF9352
:100E5000FF938091D302C091C603D0E087FF24C0E6
:100E600010928500109284008091D3028F5F80934E
:100E7000D3028091D302082E000C990B8C179D078A
:100E800024F48091D3028C30C4F18091840090913D
:100E90008500049680349C4908F47AC080918400CF
:100EA00090918500049676C08091D302082E000CA4
:100EB000990B8C179D07C4F6E091D3028E2FEE0F8D
:100EC000990BFC01EE0FFF1FE80FF91FEE55FC4FC9
:100ED000808186FFC9CFE091D3028E2FEE0F990B50
:100EE000FC01EE0FFF1FE80FF91FEE55FC4F80814C
:100EF00060E08F730E944801B7CF20918400309149
:100F00008500E091D3028E2FEE0F990BFC01EE0FBE
:100F1000FF1FE80FF91FEE55FC4F81819281820F70
:100F2000931F9093890080938800E091D3028E2FC5
:100F3000EE0F990BFC01EE0FFF1FE80FF91FEE55A6
:100F4000FC4F808186FF11C0E091D3028E2FEE0FFF
:100F5000990BFC01EE0FFF1FE80FF91FEE55FC4F38
:100F6000808161E08F730E944801FF91EF91DF91D2
:100F7000CF91BF91AF919F918F917F916F915F9131
:100F80004F913F912F910F900FBE0F901F9018958A
:100F900080E49CE990938900809388008FEF809390
:100FA000D302E3CF1F920F920FB60F9211242F930B
:100FB0003F934F935F936F937F938F939F93AF93E1
:100FC000BF93EF93FF938091B900887F803609F437
:100FD0004AC0F0F5883209F4A7C018F5803109F449
:100FE0009BC0B8F4882309F405C1883009F494C083
:100FF000FF91EF91BF91AF919F918F917F916F91F1
:101000005F914F913F912F910F900FBE0F901F90C6
:101010001895883109F488C0803251F78093B00266
:1010200014C0803409F4A5C040F48033B9F3883388
:10103000F9F68093B00285ECBCC0803509F489C014
:10104000883509F49EC0883499F60E947603D0CF83
:10105000883909F494C038F5883729F050F4883677
:1010600011F0803729F683E08093DA021092AA0209
:1010700057C0883809F483C0803919F0803809F0E6
:10108000B7CF8091AA02803208F079C0E091AA021D
:1010900081E08E0F8093AA028091BB00F0E0E657BA
:1010A000FD4F80833DC0803B39F0E0F4803A09F485
:1010B00085C0883A09F09CCF84E08093DA021092D0
:1010C000890210928802E091D602F091D702099528
:1010D0008091880281110FC081E080938802109274
:1010E000680209C0803C09F4A6CF883C09F4A3CF6C
:1010F000883B09F07DCFE091890281E08E0F8093DB
:101100008902F0E0E859FD4F80818093BB00909107
:1011100089028091880231C08091AB028093BB002C
:1011200085EC8093BC0064CF9091AD028091AC02BD
:101130009817B8F58091AE029091AF02E091AD02A0
:1011400021E02E0F2093AD02E80FF92FF11D8081D1
:10115000E5CF2091AE023091AF02E091AD0281E087
:101160008E0F8093AD028091BB00E20FF32FF11D33
:1011700080839091AD028091AC02981788F285E847
:10118000D0CF2091AE023091AF02E091AD0281E06C
:101190008E0F8093AD028091BB00E20FF32FF11D03
:1011A00080838091D902811150CF81E08093D80251
:1011B00084EA8093BC001092DA021ACF85EC809307
:1011C000BC001092DA028091AA02803230F4E091E1
:1011D000AA02F0E0E657FD4F10826091AA0270E08B
:1011E000E091D402F091D5028AE892E0099510923C
:1011F000AA02FECE1092B00228CF1092FC021092EA
:10120000FB0288EE93E0A0E0B0E08093FD029093B3
:10121000FE02A093FF02B093000324E231E030937A
:10122000FA022093F90225EC30E030930603209374
:10123000050324EC30E0309308032093070320ECEF
:1012400030E030930A032093090321EC30E030931F
:101250000C0320930B0322EC30E030930E03209319
:101260000D0326EC30E03093100320930F0310920F
:10127000120310921303109214031092150310928C
:1012800099031092980380939A0390939B03A093E1
:101290009C03B0939D0386E391E090939703809322
:1012A00096031092CD031092CC0388E491E09093C2
:1012B000CB038093CA0387E28093CE0380E18093BF
:1012C000D30382E08093D4031092D5038091C603A8
:1012D0008C3098F491E0980F9093C6038093C703E5
:1012E00090E0FC01EE0FFF1FE80FF91FEE55FC4FD9
:1012F00088EB9BE09283818308958FEF8093C703EF
:101300000895789484B5836084BD85B5836085BD78
:1013100080916E00816080936E0092E090938100D6
:101320008091810081608093810080918000816044
:10133000809380008091B10084608093B10080919F
:10134000B00081608093B00087E880937A001092AB
:10135000C100E0910903F0910A039083E091050335
:10136000F09106031082E0910703F09108038FECDF
:10137000808310921103E0910D03F0910E0386E03B
:101380008083E0910B03F0910C0380818869808356
:10139000E0910B03F0910C0380818F7D808310928C
:1013A000DE021092DD021092DC021092DB0210923B
:1013B000DA0281E08093D9021092D80261E082E1E2
:1013C0000E94480161E083E10E9448018091B900D8
:1013D0008E7F8093B9008091B9008D7F8093B90092
:1013E00088E48093B80085E48093BC0086E692E0B0
:1013F0009093D7028093D60287E692E09093D5022D
:101400008093D4021092CF038091D403823018F0DD
:1014100098E09093CF038093D20362E370E080E082
:1014200090E00E9434026091D5038AEC93E00E9420
:101430002D0468EE73E080E090E00E94340260E3E7
:101440008AEC93E00E948B0484E991E10E940402FB
:1014500060E38AEC93E00E948B0484E991E10E94AE
:10146000040260E38AEC93E00E948B0486E990E03A
:101470000E94040260E28AEC93E00E948B04609177
:10148000CF03606240E08AEC93E00E94A70484E00E
:101490008093D00340E06CE08AEC93E00E94A704C4
:1014A0000E94F70482E08093D10340E066E08AEC7A
:1014B00093E00E94A70440E062E08AEC93E00E947F
:1014C000A70480ED97E00E94040288E08093D50392
:1014D00060E08AEC93E00E942D048091C7038C3079
:1014E00008F051C061E089E00E9476018091C70355
:1014F000282F30E0F901EE0FFF1FE20FF31FEE552A
:10150000FC4F9081907C996090831092C803109258
:10151000C9032CE0622F0E948E0D829FB00111241E
:1015200030E020E0AB01420F531FFA01EE0FFF1F26
:10153000E40FF51FEE55FC4F908196FD16C02F5F0E
:101540003F4F2C30310571F781110FC01092800090
:1015500082E0809381001092850010928400B19AFD
:1015600080916F00826080936F00E091C7038E2F9F
:1015700090E0FC01EE0FFF1FE80FF91FEE55FC4F46
:1015800080818064808390E080E00E94910062E02E
:1015900082E00E94760162E083E00E94760162E0D0
:1015A00084E00E94760162E085E00E94760161E0BD
:1015B0008AE00E94760161E08BE00E94760161E0A2
:1015C0008CE00E9476010E94F60560E0E62E61E064
:1015D000F62EC9E0D0E000E010E08091EF0281112A
:1015E00046C12FB7F8948091F1029091F202A09138
:1015F000F302B091F4022FBF4091EB025091EC0244
:101600006091ED027091EE02841B950BA60BB70B57
:1016100081329E44A105B10578F01092D50360E0B7
:101620008AEC93E00E942D0450E040E070E060E01E
:1016300090E080E00E94040585E00E941F01892B54
:1016400009F063C00E941A056CE271E080E090E04E
:101650000E9434020E94F7048FE791E00E94A605E1
:101660001092EA021092E9021092E2021092E10254
:101670001092E4021092E3021092E6021092E50248
:101680001092E8021092E7020E94BE05C090E902A3
:10169000D090EA0284E0C816D1040CF4F4C0809122
:1016A000E1029091E2029093010180930001809108
:1016B000E3029091E40290930301809302018091F0
:1016C000E5029091E60290930501809304018091D8
:1016D000E7029091E80290930701809306010E942F
:1016E000F70488E891E00E94A60550E040E06FEF23
:1016F00070E090E080E00E94040560ED77E080E01B
:1017000090E00E9434020E94F60582E00E941F01D0
:10171000892BD9F40E941A05E091E902F091EA02BE
:10172000EE0FFF1FEF51FD4F8081918101968A30AE
:1017300091050CF002C1918380830E94BE056AEF7F
:1017400070E080E090E00E94340283E00E941F017C
:10175000892BC9F40E941A05E091E902F091EA028E
:10176000EE0FFF1FEF51FD4F80819181019797FD93
:10177000E7C0918380830E94BE056AEF70E080E03D
:1017800090E00E94340284E00E941F01892B09F03E
:101790006EC00E941A056EE571E080E090E00E9444
:1017A00034028091E9029091EA0201969093EA0254
:1017B0008093E90204970CF44BC141EE52E0E8E05B
:1017C000F1E090E1692E91E0792E28E131E060E0CE
:1017D00071E099249394AA24A394BB24B3948824FD
:1017E0008394DA018D919D91AD01DB01CD90DD9067
:1017F000BD018C159D0509F0812CD901CD90DD909E
:101800009D018C159D0509F0B12CD301CD90DD9083
:101810003D018C159D0509F0A12CD290C2908C152C
:101820009D0509F0912CEE16FF06D9F60E94F704EB
:10183000BB2009F488C080E991E00E94AB0587EAEB
:1018400091E00E94A6054FEF50E070E060E090E06C
:1018500080E00E94040560ED77E080E090E00E9467
:1018600034020E9414061092EA021092E902011555
:10187000110509F4B2CE0E94D202882309F4ADCE3C
:101880000E940000AACE82E00E941F01892BB1F4C1
:10189000F601EE0FFF1FEF51FD4F80819181019600
:1018A0008A3091050CF043C0918380830E94BE056D
:1018B0006AEF70E080E090E00E94340283E00E94D2
:1018C0001F01892BB9F4E091E902F091EA02EE0FD1
:1018D000FF1FEF51FD4F80819181019797FD2AC035
:1018E000918380830E94BE056AEF70E080E090E003
:1018F0000E94340284E00E941F01892B09F0C6CEA9
:10190000C090E902D090EA02AFEFCA1ADA0AD09288
:10191000EA02C092E90260E971E080E090E00E9492
:101920003402B4E0CB16D1040CF0B0CEADCE1182AF
:101930001082BCCFD183C083D5CF11821082FDCE5F
:10194000D183C08318CFAA20B1F181EB91E00E942E
:10195000AB0582ED91E00E94A6050E94C4048EEDC5
:1019600091E00E94A60585E0C82ED12C50E040E011
:1019700070E060E08FEF90E00E94040568EC70E09A
:1019800080E090E00E9434024FEF50E070E060E0B1
:1019900090E080E00E94040568EC70E080E090E058
:1019A0000E943402B1E0CB1AD10801F78AE090E03E
:1019B0000E94320658CF9920A9F08FEE91E00E9444
:1019C000AB058EE092E00E94A6050E94C4048CE163
:1019D00092E00E94A60550E040E065EA70E08FEFDB
:1019E00090E037CF882069F08AE292E00E94A60555
:1019F0001092E0021092DF026CED75E080E090E062
:101A00002ECF8091DF029091E00201969093E00248
:101A10008093DF0285E392E00E94A60550E040E05B
:101A200070E060E08FEF90E00E9404058091DF029B
:101A30009091E00203971CF08FE090E0B9CF60ED49
:101A400077E080E090E00E9434020E94F6050BCF20
:101A50000E94BE050CCF052E97FB1EF400940E9439
:101A6000420D57FD07D00E945D0D07FC03D04EF4D8
:101A70000C94420D50954095309521953F4F4F4F16
:101A80005F4F089590958095709561957F4F8F4F2A
:101A90009F4F08950E947F0DA59F900DB49F900DBC
:101AA000A49F800D911D11240895B7FF0C944A0D39
:101AB0000E944A0D821B930B0895A1E21A2EAA1BC5
:101AC000BB1BFD010DC0AA1FBB1FEE1FFF1FA217EE
:101AD000B307E407F50720F0A21BB30BE40BF50BEB
:101AE000661F771F881F991F1A9469F76095709574
:101AF000809590959B01AC01BD01CF010895A29FF7
:101B0000B001B39FC001A39F700D811D1124911DD1
:101B1000B29F700D811D1124911D0895991B79E0CC
:101B200004C0991F961708F0961B881F7A95C9F76D
:101B300080950895EE0FFF1F0590F491E02D099414
:101B4000F894FFCF010002000300040000004000F1
:101B50001400540000000000000000000600070010
:101B60000600070000000000080368029502550304
:101B7000C602A402B80200000000FE03D103010562
:101B8000A703CA03B703A80300000000BE0468024D
:101B9000010575030D0A00202A20005B005D00206E
:101BA0005F2000494E54524F44552050494E3A0050
:101BB0004445534348495300424C4F4341543A2013
:101BC00000730050494E204E4F553A0053414C5639
:101BD000415421005B41444D494E5D204279706182
:101BE00073732061637469766174004D4F442041C2
:101BF000444D494E005B414C4552545D20434F4497
:101C00002030303030202D204150454C20504F4C5A
:101C1000495449452100494E2050455249434F4CB3
:101C2000210053554E414D20504F4C495449412EAF
:101C30002E2E005B414C4552545D2050494E2049A8
:101C40004E56455253415420444554454354415403
:101C500021004D4F442053494C454E54494F5300A9
:101C60004143434553204C494D4954415400434F4F
:101C70004420434F5245435400434F44204752456C
:061C80005349542100004D
:107E8000112424B614BE80E079D021FEEBC08EE030
:107E900075D0E0ECF0E0AFE7BFEF4899FECF9096E9
:107EA000489BFDCFB4831197F1F7B2E0B083B8E1FE
:107EB000B18352D0C82F823569F466D0E0E0FEE786
:107EC000A89583E093D091D0E058F109C8F787E7EF
:107ED0003CD0EFCF8D7FD9F44CD0D82FA0E0B1E0CB
:107EE0003BD08D93DA13FCCFA0E0B1E04DD0C111AF
:107EF0000CC0F2BDE1BD8D9180BDFA9AF99A319620
:107F0000F999FECFD150A9F7E2CF48D0E0CFC330E6
:107F100041F42FD0C82F38D0859117D0C150E1F748
:107F2000D6CFC13061F425D0C82F2ED0F2BDE1BD2F
:107F3000F89A80B50AD03196C150C1F7C8CFC13583
:107F400011F488E01BD020D0C2CF9091C00095FFE3
:107F5000FCCF8093C60008952D9A259A8091C00089
:107F600087FFFCCF84FD13C0A8958091C6002D9893
:107F70000895F2DFE82FF0DFF82FEECF98E190932D
:107F80006000809360000895E7DF803219F088E098
:107F9000F5DFFFCF80EAD9CFFB01DC01E07870E8A4
:107FA0007A0F9F01E0388EE7F80728F5309629F41C
:107FB0008FE38D938FEC8C93119790E045915D91B9
:107FC00045139160A713FACFF901A058B10990FFAA
:107FD00012C083E00BD081E00D901D9007D0329647
:107FE000A713FACFF90185E001D081E187BFE895B9
:107FF00017B610FCFDCF112408950319CDCFE7402B
:00000001FF
